:020000040000FA
:100000000219ED022480E47862F222022595021A98
:100010002200000224C10219ED22220225A322227D
:100020002222FF02256AFFFFFFFFFF0225A2FFFF3A
:10003000FFFFFF0225949069537402F0A3E5A5F039
:10004000A37480F0AF81A807E6A3F0A37416F0E5CF
:100050008114F8E6A3F07C697D4F7F041226AEE49C
:10006000FEFF220225A30202A8E86480F8E933E833
:100070003360110460F0ED33EC337009E8FCE9FD06
:10008000EAFEEBFF220460DED3EB9FEA9EE99DE8E7
:10009000C2E78CF0C2F795F0400CE8CCF8E9CDF956
:1000A000EACEFAEBCFFB12027385D0F0580470034E
:1000B00020D5B3E80470075002B2D50202B292D53F
:1000C000EC0460F7E4CCC0E0C398F8603B9418609F
:1000D00008400DD0E0FB02028AE4FBFAC9FC80284C
:1000E000E830E406E4C9FBE4CAFCE830E305E4C90F
:1000F000CACBFCE854076010F8C3E913F9EA13FA15
:10010000EB13FBEC13FCD8F130F52FC3E49CFCEFB0
:100110009BFFEE9AFEED99FDD0E0FBEF4E4D4C704B
:100120001222DB030202AFEC2CFCEF33FFEE33FEB6
:10013000ED33FDED30E7EB02028AEF2BFFEE3AFEE6
:10014000ED39FDD0E0FB50130BBB00030202B2ED12
:1001500013FDEE13FEEF13FFEC13FC02028A020202
:10016000B2EC5D046005E8590470030202A81202B3
:1001700073580460F6EC4860F2EC7004FDFEFF2258
:10018000C860DB2481C85009C3986002500602028F
:10019000AF9850CAF582E9294B4A7005AB8202023A
:1001A0009E75F0007C1A7880C3EF9BEE9AED994023
:1001B0000DC3EF9BFFEE9AFEED99FDE842F0DC23C4
:1001C000ACF0D0E0FFD0E0FED0E0FDAB8220E71045
:1001D0001BEB60BAEC2CFCEF33FFEE33FEED33FD8E
:1001E00002028AE803F830E705C0F075F000EF2F4F
:1001F000FFEE33FEED33FD40B830E7C280AA75F064
:1002000020800E75F010800575F0087D007E007F5F
:10021000003392D530D503120681EC334010EF3312
:10022000FFEE33FEED33FDEC33FCD5F0ED22E5F0CF
:10023000247EA2D513CC92E7CDCEFF22EDD2E7CD1E
:1002400033EC3392D524814006E4FFFEFDFC22FC12
:10025000E4CFCECDCC24E0501174FF80EDC3CC139D
:10026000CCCD13CDCE13CECF13CF0470F030D5DE6E
:10027000020681E9D2E7C933E833F892D5EDD2E737
:10028000CD33EC33FC5002B2D522EC30E7100FBF77
:10029000000C0EBE00080DBD00040BEB6014A2D5CF
:1002A000EB13FCED92E7FD2274FFFCFDFEFF22E460
:1002B00080F8A2D574FF13FC7D80E480EFE709F697
:1002C00008DFFA8046E709F208DFFA803E88828C70
:1002D00083E709F0A3DFFA8032E309F608DFFA804A
:1002E00078E309F208DFFA807088828C83E309F0F2
:1002F000A3DFFA806489828A83E0A3F608DFFA80AC
:100300005889828A83E0A3F208DFFA804C80D28089
:10031000FA80C680D4806980F28033801080A68005
:10032000EA809A80A880DA80E280CA803389828A53
:1003300083ECFAE493A3C8C582C8CCC583CCF0A3F0
:10034000C8C582C8CCC583CCDFE9DEE7800D8982D1
:100350008A83E493A3F608DFF9ECFAA9F0EDFB2217
:1003600089828A83ECFAE0A3C8C582C8CCC583CC55
:10037000F0A3C8C582C8CCC583CCDFEADEE880DB49
:1003800089828A83E493A3F208DFF980CC88F0EFB6
:1003900060010E4E60C388F0ED2402B4040050B931
:1003A000F582EB2402B4040050AF2323458223904E
:1003B000030D73BB010689828A83E0225002E72283
:1003C000BBFE02E32289828A83E49322BB010CE50F
:1003D0008229F582E5833AF583E0225006E92582F9
:1003E000F8E622BBFE06E92582F8E222E58229F53D
:1003F00082E5833AF583E49322BB010FF8E5822975
:10040000F582E5833AF583E028F0225009C5822978
:10041000F8E58226F622BBFE09C58229F8E225828C
:10042000F222F8EA2583F583E9932822BB010689A5
:10043000828A83F0225002F722BBFE01F322F8BB2E
:10044000010DE58229F582E5833AF583E8F0225033
:1004500006E92582C8F622BBFE05E92582C8F222FC
:10046000EF8DF0A4A8F0CF8CF0A428CE8DF0A42EB0
:10047000FE22C5F0F8A3E028F0C5F0F8E582158269
:1004800070021583E038F022A3F8E0C5F025F0F003
:10049000E582158270021583E0C838F0E822BB01BE
:1004A00010E58229F582E5833AF583E0F5F0A3E0D3
:1004B000225009E92582F886F008E622BBFE0AE907
:1004C0002582F8E2F5F008E222E5832AF583E99334
:1004D000F5F0A3E99322BB010A89828A83F0E5F053
:1004E000A3F0225006F709A7F01922BBFE06F3E598
:1004F000F009F31922F8BB0111E58229F582E583A1
:100500003AF583E8F0E5F0A3F0225009E92582C826
:10051000F608A6F022BBFE09E92582C8F2E5F0083C
:10052000F222EF2BFFEE3AFEED39FDEC38FC22C350
:10053000EF9BFFEE9AFEED99FDEC98FC22E88FF020
:10054000A4CC8BF0A42CFCE98EF0A42CFC8AF0ED5A
:10055000A42CFCEA8EF0A4CDA8F08BF0A42DCC380E
:1005600025F0FDE98FF0A42CCD35F0FCEB8EF0A446
:10057000FEA9F0EB8FF0A4CFC5F02ECD39FEE43C00
:10058000FCEAA42DCE35F0FDE43CFC2275F00875A4
:100590008200EF2FFFEE33FECD33CDCC33CCC582BE
:1005A00033C5829BED9AEC99E58298400CF582EE7A
:1005B0009BFEED9AFDEC99FC0FD5F0D6E4CEFBE462
:1005C000CDFAE4CCF9A88222B800C1B90059BA002A
:1005D0002DEC8BF084CFCECDFCE5F0CBF97818EF85
:1005E0002FFFEE33FEED33FDEC33FCEB33FB10D786
:1005F00003994004EB99FB0FD8E5E4F9FA22781847
:10060000EF2FFFEE33FEED33FDEC33FCC933C910A1
:10061000D7059BE99A4007EC9BFCE99AF90FD8E0D3
:10062000E4C9FAE4CCFB2275F010EF2FFFEE33FEA5
:10063000ED33FDCC33CCC833C810D7079BEC9AE818
:1006400099400AED9BFDEC9AFCE899F80FD5F0DA99
:10065000E4CDFBE4CCFAE4C8F922EF5BFFEE5AFEEE
:10066000ED59FDEC58FC22EF4BFFEE4AFEED49FD43
:10067000EC48FC22EF6BFFEE6AFEED69FDEC68FCD6
:1006800022C3E49FFFE49EFEE49DFDE49CFC22EB7C
:100690009FF5F0EA9E42F0E99D42F0E89C45F02289
:1006A000E8600FECC313FCED13FDEE13FEEF13FF38
:1006B000D8F122E8600FEFC333FFEE33FEED33FDD8
:1006C000EC33FCD8F122BB010DE58229F582E583EC
:1006D0003AF58302071A5007E92582F8020899BB08
:1006E000FE07E92582F80208A5E58229F582E5835F
:1006F0003AF583020726BB010DE58229F582E583E1
:100700003AF58302074F5007E92582F80208B1BB8A
:10071000FE07E92582F802075B22E0FCA3E0FDA3C7
:10072000E0FEA3E0FF22E493FC740193FD740293C6
:10073000FE740393FF22E0F8A3E0F9A3E0FAA3E03C
:10074000FB22E2FB08E2F908E2FA08E2CBF822EC2D
:10075000F0A3EDF0A3EEF0A3EFF022ECF208EDF23F
:1007600008EEF208EFF222A8828583F0D083D082CF
:1007700012077E12077E12077E12077EE473E4934F
:10078000A3C583C5F0C583C8C582C8F0A3C583C50A
:10079000F0C583C8C582C822A42582F582E5F0355C
:1007A00083F58322E0FBA3E0FAA3E0F922F8E0FB63
:1007B000A3A3E0F925F0F0E582158270021583E02D
:1007C000FA38F022EBF0A3EAF0A3E9F022E493FB7D
:1007D000740193FA740293F922D083D082F8E493DF
:1007E0007012740193700DA3A393F8740193F582B2
:1007F0008883E4737402936860EFA3A3A380DFD0BF
:1008000083D082F8E4937012740193700DA3A393C4
:10081000F8740193F5828883E473740293B5F0064B
:100820007403936860E9A3A3A3A380D8D083D08284
:10083000E4937012740193700DA3A393F874019361
:10084000F5828883E4737402936C70127403936D61
:10085000700C7404936E70067405936F60DDA3A32F
:10086000A3A3A3A380CA8A838982E473EC8EF0A435
:10087000CCC5F0CCCDF8EFA4CEC5F02DFDE43CFC0A
:10088000E8A42EC8C5F03DFDE43CFCEFA4FFE5F074
:1008900028FEE43DFDE43CFC22E6FC08E6FD08E61B
:1008A000FE08E6FF22E2FC08E2FD08E2FE08E2FFA5
:1008B00022ECF608EDF608EEF608EFF622752D01AB
:1008C0009068A2E5A5F090BF3374FFF090BF12E0EE
:1008D000F52BA3E0F52A205B030209BC78A5E6FE10
:1008E00008E6F5828E83E0FB30E14690BE27E030DB
:1008F000E03190BA0BE0FF90BE27E0C39F601390F9
:10090000BE00120767FFFFFFFF90BE13E04420F018
:10091000801190BE001207670000000190BE13E036
:100920004420F078A5E6FE08E6F5828E83EB54FDC0
:10093000F078A8E664011846701190BA23F074317B
:10094000F090B469741CF0E4F608F6903D51E0FFB5
:1009500030E12554F5FFBF611F90BE27E030E01164
:1009600090BE00120767FFFFFFFF90BE13E0442018
:10097000F0903D51E04480F07881E625E024A6F532
:1009800082E43468F583E0FEA3E0FF7893EEF60896
:10099000EFF62406F582E43EF583E52AF0EF24071E
:1009A000F582E43EF583E52BF018E6FC08E6FD7FD2
:1009B000021228A87881E6045407F6223060041257
:1009C00031072230360953A4FEC212C236C21F7844
:1009D00081E625E024A6F582E43468F583E0FEA3F1
:1009E000E0FF7893EEF608EFF62406F582E43EF594
:1009F00083E52AF0EF2407F582E43EF583E52BF04A
:100A0000305F3E20973B53A4FE90B822E0547FF025
:100A100090BF22E0547FF0E4F52D9052D0E0FEA389
:100A2000E0FF4E601C9050C87404F090A62EEEF0CB
:100A3000A3EFF0904D94EEF0A3EFF090A632748007
:100A4000F0305602D232205003020B19D22E90BE43
:100A500027E07858F290BC1B7401F07853E27003E1
:100A6000020B19E4F290B85FE0640460F8E06405FA
:100A700060F390BF43E020E203020B199052D8E0EC
:100A8000FF90B82BE054076F6003020B1990BF234F
:100A9000E054BFF090BF337440F090BE27E0785828
:100AA000F2E2FF90BA0BE0C39F04FF3395E0FEFD36
:100AB000FC90BE0012074F90BE13E04420F090B8A7
:100AC0002BE05478F52ED2186470602FE52E6478F0
:100AD0006029E52E64506023E52E6458601D90BEA9
:100AE00017E04402F00000000090BE03E0440190D3
:100AF000BA03F090BA237401F0D228E52E600D6499
:100B0000086009D22F90BF23E04410F090BF13E09B
:100B1000F52E90BF23E04440F030543620180302F5
:100B20000DB9E51E241AF582E4351DF5837401F034
:100B3000E51E241AF582E4351DF583E0FF90B81A0E
:100B4000E054FEFEEF4EF0205503020DB9D2300204
:100B50000DB9205D03020DB9903DA9E020E203022A
:100B60000C61E52B64207002F52D90B439E0540F30
:100B7000600AE0540F64016003020C3FE4F52E901C
:100B80003DAEE0FCA3E0FD2419F582E43CF583E0F2
:100B9000606890B363E030E76FE0547FF0752E013A
:100BA00090B439E030E61590B43BE04480F0ED2499
:100BB0001AF582E43CF5837401F0801890B43BE0B0
:100BC000547FF0903DAEE0FEA3E0241AF582E43EAF
:100BD000F583E4F0903DAFE0241BFF903DAEE034A0
:100BE00000FE7C1D7D827B06123BE47E1E7F877C9F
:100BF0001D7D827B06123BE4800E90B363E030E7FC
:100C000007E0547FF0752E01E52E6011903DA9E0BC
:100C10004408F090BE27E07858F2020DB9903DAE3E
:100C2000E0FEA3E0240BF582E43EF583E4F0A304A8
:100C3000F090BA23E0548CF0E0440CF0020DB9902F
:100C40003DAEE0FEA3E0240BF582E43EF583E4F044
:100C5000A304F090BA23E0548CF0E0440CF0020DB1
:100C6000B9903EC0E0FF54BF64036003020DB99029
:100C7000B439E0540F6015E0540F6406600EE05480
:100C80000F64026007E0540FFEBE0107EF440490BA
:100C90003EC0F0903EC0E020E603020DB9E4F52E20
:100CA000903C3AE030E01090B363E030E70CE05461
:100CB0007FF0752E018003752E01E52E7003020D65
:100CC00051903ED67401F090B439E0540F6007E0C3
:100CD000540F64067067903ECBE0600214F07E1EF5
:100CE0007F877C1D7D827B06123BE490B439E03027
:100CF000E60990B43BE04480F0800790B43BE054B8
:100D00007FF0903EC0E04410F0903ED47403F09029
:100D1000B86E14F0A37480F090B44E741DF0A374F8
:100D200082F090BF22E04430F0E490BA2BF07412CD
:100D3000F090B469741CF078B77602802B903EC0B6
:100D4000E04408F090BA23E0548CF0E0440CF080CA
:100D500017E4903ED6F0903EC0E04408F090BA23ED
:100D6000E0548CF0E0440CF0903ED6E0604B90B440
:100D700039E0540F904338F090B439E05440904338
:100D800040F090B438E0904339F07E437F3A7C1DC8
:100D90007D827B06123BE47E437F417C1D7D8890F3
:100DA0004339E024FAFB123BE4906B32E0FF90B849
:100DB000B3E02FF404904434F0E52D60137893E60B
:100DC000FC08E6FD7F021228A87881E6045407F6A5
:100DD00022E4F5A8906FEEF0A3F0906B2BF02003C7
:100DE0001C7E6B7F007BF07A04FDFC1236C17E4FC7
:100DF0007F7C7B667A007D007C081236C1906B2C6C
:100E0000E09069A5F0906FEEE064AA7004A3E0643E
:100E100055601575A5017E6B7F007C407D007BF0E1
:100E20007A041239B6E4F5A5906B3BE0B4010353A4
:100E300087F79055B57406F075A50312A42FEF60DF
:100E40000675A50112BB60E4F5A520000B906B317F
:100E50007403F0758E018006906B30E0F58E123BC6
:100E6000FC121FC5123E261231C712331D123C2C34
:100E7000E4F5A512EE9DE4F5A5F5A5123E58E4F5BE
:100E8000A5781FE630E20D120F9874101234017429
:100E900010120FC1781FE654306019120F987410A9
:100EA000F0781FE6FFE5612407F582E43560F583FD
:100EB000EF120FC1781FE630E33D1226E18E608FFE
:100EC0006112342C240412340A740212342B2406C6
:100ED00012340A740E123401E412342B2408123432
:100EE0000A740312342B240912340A7403F0AD611E
:100EF000AC607F041226AE300014123EBC123EA835
:100F0000123EB2123E6C123E9E123E768006781F52
:100F1000E654C0F6123E44123E30123E4E123E3AA5
:100F200012F9DBC288C28AE490BD13F090BD03F0D1
:100F300090BD1B740FF090BD0A743DF0A37409F0CE
:100F400090BD037401F0E490BD0CF075A50112F49E
:100F500059E4F5A57E047F4E7B29FA7D047C0612B8
:100F600036C1900475E0FEA3E064557003EE64AAF8
:100F70007025F562123412FEA3E04E601390045007
:100F8000123415FF123412FCA3E0F5828C83EFF0CB
:100F90000562E562B40DDD221226E18E608F618F5D
:100FA000828E83E5822404F582E43583F58374021E
:100FB000F08F828E83E5822406F582E43583F58303
:100FC00022F0AD61AC607F041226AE22D310AF01D7
:100FD000C3C0D0EDF5E9ECF5EAEFF5EBEEF5ECEB9F
:100FE000F5EDEAF5EE7404140070FCE5E9FFE5EABE
:100FF000FEE5EBFDE5ECFCE5EDE5EED0D092AF22B1
:10100000353035365F535050000000000000223567
:10101000000107E58E20E30690B8337401F090B824
:1010200025E054FEF053A2F3E4F55DF55E00000008
:1010300000000000000000000000055EE55E700298
:10104000055DB498E8E55DB406E35387F790B83AD8
:10105000E054DFF0D2A4D2A0D2A053A1EE00000051
:1010600000C205D200781FE6FF30E602800EEF30A6
:10107000E704C200801120A40920A006D205C20006
:10108000800520A002C20090A4F77481F01236BB44
:10109000781FE620E33CE4906FEEF0A3F07E6F7FD4
:1010A000EE7B02FA7DEE7C041236C1906FEEE0B466
:1010B000AA0BA3E0B455067DFF7FFF80047D237F4C
:1010C000021236BE30002175A50412E7BFE4F5A573
:1010D0008016781FE6B4AA05E4FDFF8008906CD264
:1010E000E0FFA3E0FD1236BE781FE664AA600302AB
:1010F00011CD758E1290BF007403F0E490BD03F023
:1011000090B203F090B007E04401F0E4F5A57E034F
:101110007F4A7C407DD07B2D7A011239B6E4F5A55B
:101120007E587FB87B5FFA7DA07C011236C1E478DF
:10113000B5F278B5E2FFC3943B502D75F002EF9005
:10114000034A120798E0F55EA3E0F55FE4F5A5EF2A
:1011500090408793F55DAD5FAC5EFF12F33EE4F522
:10116000A578B5E204F280CAE4F5A5FDFC7F1D1266
:10117000F33E7D007C227F1D12F33EE4F5A57E0345
:101180007F4A7C587DB87B5F123BE4E478B5F27807
:10119000B5E2FFC394185025123433FEA3E04E602D
:1011A00015E2FF900363123417FE123433FCA3E000
:1011B000F5828C83EEF078B5E204F280D2E490BF41
:1011C00000F075A50412F9F7E4F5A5800E30050BC3
:1011D000E490BD03F075A50112BB60120DD1300380
:1011E0000B43A380C28712343F12343F75A897E4A3
:1011F00090B203F01225A430002E75A50512C198F7
:10120000906CB5E0600675A50312F94C906CE4E0B3
:10121000600675A50312B050906CAFE030E3031286
:10122000AD51E4F5A5123E0075A50312F201E4F5F7
:10123000A590BE2AE0FF9069A4E06F700302130E30
:101240009055CCE0FF64016008EF64026003021374
:101250000690BE2AE078BBF290BE29E018F2A3E027
:10126000FF08E2B507EBE22401F218E23400F212C3
:10127000341FE07003021306C2AFE51E242A1234A5
:1012800023E0FFA3E078B6CFF208EFF2E51E2428B2
:10129000123423E0FFA3E008CFF208EFF2D2AF78D8
:1012A000B6E2FE08E2FFC378BBE29F79B7F318E22B
:1012B0009E19F378B8E2FE08E2FFD378B7E29F18F0
:1012C000E29E4042E4251EF582E51D3401F583745B
:1012D00008F012341FE4F01226E1905917EEF0A343
:1012E000EFF02404F582E43EF5837404F0EF240566
:1012F000F582E43EF583E51CF0905917E0FCA3E08D
:10130000FD7F061226AE90BE2AE09069A4F0906B95
:101310002EE030E00975A50112F460E4F5A5E49033
:10132000BD0CF0E56F60030211F475A50312F8EE31
:10133000E4F5A5906B56E0540F601475A50312DE1A
:1013400037905919EFF0E4F5A5EF60030211F4901E
:101350006B56E054F070030211F4E56F6003021164
:10136000F4E58754FC4401F58700000211F4E4F52C
:101370002E305654787FE6704C760190AA5FE0F5E7
:101380002D7883F224FE601C0470327A0079127882
:10139000127C007D007B017AAA79607E007F0412B6
:1013A000038D80247A00791278127C007D007B0105
:1013B0007AAA79647E007F0412038D800BE4787F23
:1013C000F680058003752E0120570302152E787FC5
:1013D000E66401600302152E7883E224FE700302A6
:1013E000147B0460030215177880E625E02482F858
:1013F000E6FE08E6FF7893EEF6FA08EFF6FBAA0E93
:10140000AB0F18E6FE08E6FF8E832404F582E43570
:1014100083F5837421F08F828E83E5822406F58222
:10142000E43583F583E510F0A3E511F0AF15AE14B4
:10143000AD13AC128B828A83E5822409F582E435F0
:1014400083F58312074F9068BBE06401F025E02428
:101450008BF582E43420F583E0FEA3E08E10F511D5
:1014600030000B902089E0FEA3E08E10F51190AAC9
:101470009AE510F0A3E511F00215177880E625E053
:101480002482F8E6FE08E6FF7893A60E08A60F78F9
:10149000B1E6FE08E6FF8E832407F582E43583F586
:1014A00083E0FD7893E6FA08E68A832405F582E472
:1014B0003583F583EDF08F828E83E5822408F582F3
:1014C000E43583F583E0FEA3E078B1A60E08F618B4
:1014D000E6FE08E6F5828E83A3A3A3E0FEA3E090D8
:1014E000AA7BF0EE90AA7AF07893E6FA08E6FB8AF7
:1014F000832404F582E43583F5837422F0AF15AEBE
:1015000014AD13AC128B828A83E5822409F582E440
:101510003583F58312074FE4787FF67893E6FC086D
:10152000E6FD7F041228A87880E6045407F6E52E2D
:10153000604A787F760190AA5FE0F52D7883F224E7
:10154000FE601C0470327A00791278127C007D00F3
:101550007B017AAA79607E007F0412038D801D7A58
:1015600000791278127C007D007B017AAA79647E72
:10157000007F0412038D8004E4787FF630553478C0
:1015800080E625E02482F8E6FE08E6FF7893A60EC2
:1015900008A60F18E6FC08E6FD8C832404F582E417
:1015A0003583F5837440F07F041228A87880E60420
:1015B0005407F630520690AA0B7402F0E52B5478CB
:1015C000FFE52A541B4F6017E52A30E106781F76A5
:1015D000208004781F7610E490BD03F012000E30D6
:1015E0005A2D300504121E6B223000231226E19082
:1015F00057D6EEF0A3EFF09057D6E0FCA3E0FD2421
:1016000004F582E43CF58374C5F07F0E1226AE2209
:101610008F438D44E4789EF208E5A5F275F06F9053
:1016200052D712347D78BCF608EFF68E83E0700F47
:10163000E54464026009E54464046003021859E566
:1016400044640B6013E5446404600D75A501AF4369
:1016500012E42AE4F5A5C223E5446404600B75A5F1
:1016600001AF4312E1DEE4F5A512346CF5828E83FE
:10167000E030E50B75A501AF4312A9BEE4F5A57BEB
:1016800006AD437FFF12185A90685FE0B401031261
:101690003A20E543D39400401C12346CFF8E831231
:1016A0003459E06010123452123459E4F09065ED70
:1016B000E0600214F0E54375F00AA424E2F582E448
:1016C000345FAF82FE7B0AE4FD123DE612346C8E7D
:1016D00083246512345BE054066049905744E070FF
:1016E00002A3E0603FE4906992F0906993F0A3F068
:1016F000906996F0906995F01226E1789CEEF208D8
:10170000EFF22404F582E43EF5837419F0EF24052A
:10171000F582E43EF583E543F018E2FC08E2FD7F44
:10172000081226AE12346CFFF5828E83E4F07B6FD4
:101730007A01FD123BCC12346CFF8E83241C1234D0
:10174000647404123451241F123464E4F0A3742826
:10175000123451240A1234647408123451241512BC
:1017600034482413123448241412344824171234F1
:10177000482426123464747DF0A3E41234512428E2
:10178000123464E4F0A374FAF0906B46E014FF188E
:10179000E6FC08E6FD8C83242212345BEFF08D8298
:1017A0008C83E582241912346474FFF0906762E040
:1017B000FF8D828C83E582241712345BEFF0785B17
:1017C000E2B543037404F2E543C394015034C2AF5D
:1017D0009055D0E054FEF0E544640B60079055CC82
:1017E000E054FCF0D2AF9065F0E4F09055C61207DB
:1017F0006700000000E49055C5F0788BE254EFF2EA
:1018000080309055D0E054FDF0E544640B600BE06F
:1018100020E0079055CCE054FCF09065EDE07012AC
:101820009065DCF090BC22E0547FF0C221E4906629
:1018300031F0905DC0E0B543037402F09055CCE008
:10184000700812299F789E7401F2789EE260057FED
:101850000112355B789FE2F5A522AA07A9059064DD
:101860002DE0FDA3E090587ACDF0A3EDF0E4A3F0D5
:10187000A3F090587AE0FCA3E0FD4C70030219EC51
:10188000ED2404F582E43CF583E06B60030219CBA0
:1018900090587AE0A3E02406F582E43CF583E06901
:1018A00060030219CBED2405F582E43CF583E06A80
:1018B0006007EAF460030219AA90587AE0FCA3E0FA
:1018C000FDF5828C83E0F8A3E0F582888345836090
:1018D0001F8D828C83A3A3E0FEA3E0FF8D828C8307
:1018E000E0FCA3E0F5828C83A3A3EE8FF0120472D8
:1018F00090587CE07002A3E0704D90587AE0FEA30F
:10190000E0FFF5828E83E0FDA3E090642DCDF0A38F
:10191000EDF090649FE0FDA3E08F828E83CDF0A375
:10192000EDF090587AE0FFA3E090649FCFF0A3EF32
:10193000F090642DE0FFA3E090587ACFF0A3EFF091
:10194000E4A3F0A3F0805890587AE0FEA3E0F5827B
:101950008E83E0FEA3E0FF90587CE0FCA3E0F582DC
:101960008C83EEF0A3EFF090649FE0FEA3E0FF9085
:10197000587AE0FCA3E0FDF5828C83EEF0A3EFF053
:1019800090649FECF0A3EDF090587CE0FEA3E0F5AE
:10199000828E83E0FFA3E090587ACFF0A3EFF0EAC5
:1019A000F470030218722202187290587AE0FEA3B3
:1019B000E0FFA3EEF0A3EFF0F5828E83E0FFA3E05B
:1019C00090587ACFF0A3EFF002187290587AE0FEA8
:1019D000A3E0FFA3EEF0A3EFF0F5828E83E0FFA378
:1019E000E090587ACFF0A3EFF00218722243A110D2
:1019F000D2A4C2A490BD147401F0E4F00000000071
:101A000000000000000090BF00E4F07411F58E901B
:101A1000A4F4E04480F090BD10E05407781FF67500
:101A2000200043A110D2A4C2A4D2A4C2A490BF009B
:101A3000E4F090BD18740FF090BD007401F090BFF9
:101A4000007403F075A50075D00078FF79DFE4F627
:101A500018D9FC781EF6D8FD75A40C5387DF43A176
:101A60001153A3DFC2A0D2A00000308542C2A00063
:101A70000020853BD2A00000308534C2A0000020A9
:101A8000852DC20353A3FE53A1EF53AFF92080125B
:101A900020A40F20B10C30B209D2037480781FF655
:101AA000800D74AA781FF643AF40C2B6021B29C24C
:101AB000A053A3FE75A70078007F00E4F208DFFCC6
:101AC0009001007F007E6AE4F0A3DFFCDEFA90C0A4
:101AD000007F007E40E4F0A3DFFCDEFA757E00901C
:101AE000000078107455F0A3D8FC7581FF021B2903
:101AF00022E493A3F8E493A34003F68001F208DF05
:101B0000F4802FE493A3F85407240CC8C333C454BF
:101B10000F4420C8834004F456800146F6DFE48079
:101B2000110102040810204080902EE7121B32029F
:101B30001013E47E019360B8A3FF543F30E50954CD
:101B40001FFEE493A360010ECF54C025E060A240C5
:101B5000B2E493A3FAE493A3F8E493A3C8C582C8BC
:101B6000CAC583CAF0A3C8C582C8CAC583CADFE98B
:101B7000DEE780BE8E338F348F828E83E58224042D
:101B8000F582E43583F583E024FE601F14700302C0
:101B90001C92147003021CC824036003021CF47B13
:101BA000007A04E4FD7F021227582290642DE0FEA3
:101BB000A3E0FF4E7003021C7C8F828E83A3A3746C
:101BC000FFF5F012047290642DE0FEA3E0F5828E22
:101BD00083A3A3E0FEA3E04E6003021C7C1226E177
:101BE0008E338F3490642DE0FEA3E0FF2405F58250
:101BF000E43EF583E0FDE5342404F582E43533F575
:101C000083EDF0EF2406F582E43EF583E0FFE53452
:101C10002405F582E43533F583EFF090642DE0FE82
:101C2000A3E02404F582E43EF583E0FFAD34AC3359
:101C30001226AE90642DE0FEA3E0FFF5828E83E0D5
:101C4000FCA3E08C35F53690649FE0FDA3E08F8225
:101C50008E83CDF0A3EDF090642DE0FFA3E09064BF
:101C60009FCFF0A3EFF090642DE535F0A3E536F0BB
:101C700045356003021BC68003021BC690642DE03D
:101C80007002A3E0606E7B007A04E4FD7F021227FD
:101C90005822E5342406FFE43533FAA9077B019086
:101CA00000011203CCFF9000021203CCFD90000350
:101CB00012049EFBAAF0E5342406F582E43533F5E0
:101CC00083E0F547121CF522E5342406FFE43533A2
:101CD000FAA9077B019000011203CCFF90000212C9
:101CE00003CCFDE5342406FBE435338B82F583E039
:101CF000FB12185A228F438D448A458B46E5464590
:101D0000457003021E6A90642DE07002A3E0702308
:101D10001226E19057F9EEF0A3EFF09057F9E0FCAE
:101D2000A3E0FD2404F582E43CF5837401F07F0711
:101D30001226AEAB47AD44AF4312185A90642DE063
:101D4000FFA3E09057FBCFF0A3EFF0E4A3F0A3F0E4
:101D50009057FBE0FEA3E0FF4E60478F828E83A387
:101D6000A3E0FEA3E0FFC39546EE9545503490579F
:101D7000FBE0FCA3E0FDC3E5469FF546E5459EF587
:101D800045A3ECF0A3EDF09057FBE0FEA3E0F58255
:101D90008E83E0FFA3E09057FBCFF0A3EFF080B07D
:101DA00080AE90649FE0FEA3E0FFF5828E83A3A344
:101DB000E545F0A3E546F0EF2404F582E43EF58323
:101DC000E547F0EF2405F582E43EF583E543F0EFC7
:101DD0002406F582E43EF583E544F09057FDE0FEED
:101DE000A3E0FF4E701190649FE0FDA3E090642D8E
:101DF000CDF0A3EDF0801090649FE0FDA3E08F8212
:101E00008E83CDF0A3EDF090649FE0FEA3E0FFF59C
:101E1000828E83E0FDA3E09057FDCDF0A3EDF0901E
:101E200057FBE0FCA3E0FD8F828E83ECF0A3EDF086
:101E30008D828C83A3A3C083C082C3A3E09546FF99
:101E40000582D5820215831582E09545D082D08324
:101E5000F0A3EFF09057FDE0FEA3E0FF90649FEE4B
:101E6000F0A3EFF04E70031237FF22906B2EE06468
:101E7000026003021F2B90A622E0FEA3E0FFC390A6
:101E8000A627E09FFF90A626E09E90453CF0A3EF9A
:101E9000F0904540E0FEA3E0FF90453CE0FAA3E06F
:101EA000FB6F7002EA6E6076E4905FFCF090454054
:101EB000E0FCA3E0FDD39BEC9A401690453CE0FE8D
:101EC000A3E0FFED9FFFEC9E9057D8F0A3EFF080CA
:101ED0001A90453CE0FEA3E0FFC3E49FCF74049E4C
:101EE000CF2DCF3C9057D8F0A3EFF09057D8E0FE1D
:101EF000A3E0FFC3EE64809480500DE42FFFEE3426
:101F0000049057D8F0A3EFF09057D8E0FFA3E090EB
:101F1000A62ECFF0A3EFF090A6327480F022905F4F
:101F2000FC7401F0788BE254DFF22290A622E0FEEE
:101F3000A3E0FFC390A627E09FFF90A626E09E9017
:101F4000453CF0A3EFF0904540E0FEA3E0FF904554
:101F50003CE0FCA3E0FD6F7002EC6E605BE490453A
:101F600042F0C3904541E09DFF904540E09CFE90CB
:101F700057D8F0A3EFF0C3EE6480948050249069AA
:101F8000B1E060109057D9E02400F09057D8E034C9
:101F900002F0800E9057D9E02400F09057D8E0343A
:101FA00004F09057D8E0FFA3E090A62ECFF0A3EF67
:101FB000F090A6327480F0229045427401F0788B44
:101FC000E254DFF22278147437F208747FF2E4FFEF
:101FD00075F00AEFA42489F582E5F03437AD82FC70
:101FE00075F00AEFA4247FF582E5F03437F583EC31
:101FF000F0A3EDF075F00AEFA42481F582E5F0344A
:1020000037F5837404F00FBF3FC6E49039F5F0A3B1
:10201000F0A37404F078107433F2087423F2E4FF30
:1020200075F00EEFA42431F582E5F03433AD82FC77
:1020300075F00EEFA42423F582E5F03433F583EC3C
:10204000F0A3EDF075F00EEFA42425F582E5F03451
:1020500033F5837403F00FBF3FC6E4903695F0A3C9
:10206000F0A37403F078127436F20874A3F2E4FF5C
:10207000EF75F016A424B9F582E43436AD82FCEF96
:1020800075F016A424A3F582E43436F583ECF0A3AE
:10209000EDF0EF75F016A424A5F582E43436F5834F
:1020A0007402F00FBF09C9E4903769F0A3F0A3747C
:1020B00002F078167439F20874FFF2E4FF75F04606
:1020C000EFA42445F582E5F0343AAD82FC75F04684
:1020D000EFA424FFF582E5F03439F583ECF0A3EDAD
:1020E000F075F046EFA42401F582E5F0343AF5836B
:1020F0007401F00FBF07C6E4903BE9F0A3F0A3041E
:10210000F022AA07A9057839E2FC08E28C71F57281
:10211000E4F573F574E57245717003022235E572DA
:102120002404F582E43571F583E06B600302221E1E
:10213000E5722406F582E43571F583E069600302F7
:10214000221EE5722405F582E43571F583E06A60AC
:1021500007EAF46003022207857282857183E0FC3E
:10216000A3E0FD4C6019857183857282A3A3E0FE14
:10217000A3E0FF8D828C83A3A3EE8FF0120472E59F
:10218000744573703B857282857183E0FFA3E078AC
:1021900039CFF208EFF27833E2FF08E285728285E8
:1021A0007183CFF0A3EFF018E571F208E572F278D1
:1021B00039E2FE08E28E71F572E4F573F574803C45
:1021C000857282857183E0FFA3E0857482857383C5
:1021D000CFF0A3EFF07833E2FF08E28572828571D9
:1021E00083CFF0A3EFF018E571F208E572F2857481
:1021F00082857383E0FEA3E08E71F572EAF47003CA
:1022000002211522022115857173857274857282EF
:10221000857183E0FEA3E08E71F572022115857150
:1022200073857274857282857183E0FEA3E08E717E
:10223000F572022115228F2F8D308A318B32E532D3
:102240004531700302235B782BE2FBAD30AF2F12D8
:1022500021027839E2FE08E28E71F572E4F573F539
:10226000747835E2FE08E22532F532EE3531F5318B
:10227000E57245716038857282857183A3A3E0FEA3
:10228000A3E0FFC39532EE95315023C3E5329FF5AD
:1022900032E5319EF5318571738572748572828560
:1022A0007183E0FEA3E08E71F57280C480C2783342
:1022B000E2FE08E2FFF5828E83A3A3E531F0A3E5F9
:1022C00032F0782BE2FDEF2404F582E43EF583ED55
:1022D000F07833E2FE08E2FF2405F582E43EF58360
:1022E000E52FF0EF2406F582E43EF583E530F0E5D6
:1022F00074457370097839EEF208EFF2800B85743B
:1023000082857383EEF0A3EFF07833E2FE08E2FFFC
:10231000F5828E83E0FCA3E08C73F5748F828E834C
:10232000E571F0A3E572F0F582857183A3A3C08304
:10233000C082C3A3E09532FF0582D58202158315C2
:1023400082E09531D082D083F0A3EFF018E573F2EC
:1023500008E574F2457370031237FF228E4A8F4BE3
:102360008F828E83E5822404F582E43583F583E051
:10237000600302247F7839E2FE08E2F5828E83A3AF
:10238000A3E0FEA3E0FF7835E2FC08E2FDD3EF9D79
:10239000EE9C40030224401226E18E4A8F4B78398E
:1023A000E2FE08E2FF2405F582E43EF583E0FDE568
:1023B0004B2404F582E4354AF583EDF0EF2406F56D
:1023C00082E43EF583E0FFE54B2405F582E4354ADF
:1023D000F583EFF018E2FE08E22404F582E43EF50E
:1023E00083E0FFAD4BAC4A1226AE7839E2FE08E23C
:1023F000FFF5828E83A3A3E0FCA3E0FDC37836E261
:102400009DF218E29CF28F828E83E0FEA3E0FF78BB
:1024100033E2FC08E2FD7839E2FA08E2FBF5828A51
:1024200083ECF0A3EDF07833EAF208EBF27839EEC2
:10243000F208EFF2EF4E60030223757835F208F2EE
:102440007835E2FE08E2FF4E602E7839E2FC08E2C1
:10245000F5828C83A3A3C083C082C3A3E09FFF0542
:1024600082D5820215831582E09ED082D083F0A3AC
:10247000EFF0E47835F208F2E47832F21226BF2267
:10248000C0D0C0E030361153A4DF90B203E0547FD7
:10249000F090B207E020E7F9C0F0C092C083C0829C
:1024A000C085C08475D0087592001208BD300F41F8
:1024B000D084D085D082D083D092D0F0D0E0D0D05C
:1024C00032C0D0C0E0C0F0C092C083C082C085C01E
:1024D0008475D008759200123C59200503300E1106
:1024E000D084D085D082D083D092D0F0D0E0D0D02C
:1024F0003275D000C0A5C000C001C002C003C00436
:10250000C005C006C00775A500200E2F7415C0E0D9
:102510007425C0E032122A80D007D006D005D0043E
:10252000D003D002D001D000D0A5D084D085D082F5
:10253000D083D092D0F0D0E0D0D0227444C0E074E8
:1025400025C0E032122F5DD007D006D005D004D0D0
:1025500003D002D001D000D0A5D084D085D082D0C5
:1025600083D092D0F0D0E0D0D022C0D0C0E0C0F074
:10257000C092C083C082C085C08475D008759200A7
:10258000122CFBD084D085D082D083D092D0F0D0D2
:10259000E0D0D03232C000C0E0C0D0D0D0D0E0D047
:1025A00000323232C2AFE56F70030226A5903F477A
:1025B00093F521300A4C7825E2FE08E2FFF5828E81
:1025C00083A3A3A3E0782BF2E4782FF2D2AF782B89
:1025D000E2FD33333354F8FD902C7F93F5A5747BE3
:1025E0002DF582E4342CF583E493740193FA74029C
:1025F00093F5828A8312086AE4F5A5C2AF122725F3
:1026000080A430094D782CE2FE08E2FFF5828E832B
:10261000A3A3A3E0782BF2E4781BF2D2AF782BE2ED
:10262000FD33333354F8FD902C7F93F5A5747B2D47
:10263000F582E4342CF583E493740193FA740293E5
:10264000F5828A8312086AE4F5A5C2AF1227360222
:1026500025A62008030225A6781CE2FE08E2FFF565
:10266000828E83A3A3A3E0782BF2E47822F2D2AF88
:10267000782BE2FD33333354F8FD902C7F93F5A58E
:10268000747B2DF582E4342CF583E493740193FA82
:10269000740293F5828A8312086AE4F5A5C2AF1228
:1026A00027470225A6E4782BF2F521D2AF227480C9
:1026B00055A870030228A8C2AF1228A8D2AF22746E
:1026C0008055A87003023222C2AF123222D2AF224A
:1026D000748055A87003022FCEC2AF122FCED2AF96
:1026E00022748055A87003023757C2AF123757D2F1
:1026F000AF22748055A87003023781C2AF123781B0
:10270000D2AF22748055A870030237ABC2AF123724
:10271000ABD2AF22748055A870030237D5C2AF1276
:1027200037D5D2AF22748055A8700302359CC2AF52
:1027300012359CD2AF22748055A870030235D2C2E4
:10274000AF1235D2D2AF22748055A870030236087A
:10275000C2AF123608D2AF22748055A8700302228D
:1027600036C2AF122236D2AF22748055A87003024F
:102770002102C2AF122102D2AF22748055A8700389
:10278000022D7BC2AF122D7BD2AF22748055A87070
:102790000302351AC2AF12351AD2AF22748055A87F
:1027A000700302396CC2AF12396CD2AF228F43E48E
:1027B000789EF208E5A5F275F09C903EDC12347D1F
:1027C000789CF208EFF28E83E070030228A712349F
:1027D00088FF2483123475E4F0EF123473E0FF3085
:1027E000E705905FB4800E123488123473E0FF3036
:1027F000E60D905FB3E0FEEFF4FFEE5FF0801D901A
:102800005FC8E0FF789CE2FC08E22482F582EC34A9
:1028100001F583E0F4FEEF5E905FC8F0E54344808D
:10282000F54475A501AF4312E42AE4F5A575A501A9
:10283000AF4312E1DEE4F5A5123488FF7B9C7A01F8
:10284000E4FD123BCC90BF23E04440F0E47870F20A
:10285000786DF29055D0E054F3F09055CCE054F3FD
:10286000FFF0788BE254BFF2EF701112299FC24E35
:1028700090B433E054FCF0789E7401F2789EE260EC
:102880002190675AE0700B9069BCE060057F0112EF
:10289000355B903DA4E0700A903EBFE0FF600312FC
:1028A0003B25789FE2F5A5228D828C83A3A3A3EF1D
:1028B000F033333354F8902C7E9314605414700327
:1028C0000229582402600302299EE56D70107825C4
:1028D000ECF208EDF27827ECF208EDF2802578278B
:1028E000E2FE08E2F5828E83ECF0A3EDF018ECF244
:1028F00008EDF2782FE2B4010A7402F27829ECF2C2
:1029000008EDF2056D436F048D828C83E4F0A3F033
:1029100022E56E7010782CECF208EDF27830ECF2D3
:1029200008EDF280257830E2FE08E2F5828E83EC35
:10293000F0A3EDF018ECF208EDF2781BE2B4010A16
:102940007402F27819ECF208EDF2056E436F028D15
:10295000828C83E4F0A3F022E5707010781CECF216
:1029600008EDF2781EECF208EDF28025781EE2FE0A
:1029700008E2F5828E83ECF0A3EDF018ECF208ED9E
:10298000F27822E2B4010A7402F27820ECF208ED47
:10299000F20570436F018D828C83E4F0A3F022C2B4
:1029A000AF90BE12E04403F0D2AF9055D0E054FC9B
:1029B000F0E4F51C751D52751ED7785DF290B81BBA
:1029C000E04480F090B817E04404F0E4905FDEF05B
:1029D000905FDFF078787401F2087400F2E47855C3
:1029E000F2785B7404F2E4FFEF75F009A42446F575
:1029F00082E43457F583E4F0EF75F009A424B4F5CC
:102A000082E43456F583E4F00FBF10DC788AE25498
:102A10001DF2788BE254A0F208E4F220000975A5BB
:102A20000112D530E4F5A5E49056A1F0905FC6F010
:102A3000C22190BC23E054FDF07E147F2A90B60A98
:102A4000EEF0A3EFF0783FEEF208EFF27E1C7F5D30
:102A50009064AAEEF0A3EFF090B60EEEF0A3EFF0C4
:102A6000E49064B1F090B807F090B805F0905FB4CE
:102A7000F0905FB3F0905FC8F0905FC7F0C219228A
:102A8000C2AF782BE27818F27824E521F2E56FD313
:102A900094015003022B497E00E56F54FE2447F554
:102AA00082EE343FF583E493F521300A4C7825E239
:102AB000FE08E2FFF5828E83A3A3A3E0782BF2E465
:102AC000782FF2D2AF782BE2FD33333354F8FD90F8
:102AD0002C7F93F5A5747B2DF582E4342CF583E4EB
:102AE00093740193FA740293F5828A8312086AE45C
:102AF000F5A5C2AF1227258094300991782CE2FE0B
:102B000008E2FFF5828E83A3A3A3E0782BF2E4789A
:102B10001BF2D2AF782BE2FD33333354F8FD902C07
:102B20007F93F5A5747B2DF582E4342CF583E49333
:102B3000740193FA740293F5828A8312086AE4F5A9
:102B4000A5C2AF122736022A8D7818E2782BF278C8
:102B500024E2F521D2AF229059B41239619059B3D1
:102B6000F09059B3E0FEC39408500D123946600846
:102B70009059B3E004F080E99059B3E01207D92BE3
:102B80009B002BA5012BAF022BB9032BC3042BCD2C
:102B9000052BD7062BE10700002BEAED6003D3805D
:102BA00001C3928022ED6003D38001C3928522EDA0
:102BB0006003D38001C3929722ED6003D38001C3E9
:102BC00092B122ED6003D38001C392B222ED600383
:102BD000D38001C392B322ED6003D38001C392B4CA
:102BE00022ED6003D38001C392B72278B1E6FE08DC
:102BF000E6FFF5828E83A3A3A3E0FCA3E0FD78BEED
:102C0000ECF2FC08EDF2FDC2AF8F828E837405F00A
:102C100078B1E6FE08E68E832408F582E43583F574
:102C200083E0FEA3E018A60608F6D2AFED4C70399B
:102C30001226E178BCEEF208EFF22404F582E43EBD
:102C4000F5837403F0EF2405F582E43EF583740107
:102C5000F018E2FC08E2FD7F0E1226AE7E907F00A7
:102C600078BE7490F2087400F2C2AF9064B1E004D0
:102C7000F0D2AF78BEE2FE08E2FF22FF00210200A0
:102C8000000000FF235C0000000000FFB64E0000C3
:102C9000000000FFDD600101000000FFA54501020A
:102CA000000000FFF1770102000000FF581401014D
:102CB000000000FF1B740100000000FF7B240202E3
:102CC000000000FF755E0203000000FFBA0C020462
:102CD000000000FF60730206000000FFA1F4020381
:102CE000000000FF9E220200000000FFFEAE020571
:102CF000000000FF0021020000000030983930057C
:102D00001A905FFAE02422F582E43421F583E599F4
:102D1000F0905FFAE004F0E0F0801A905FFAE024AF
:102D2000FDF582E4345FF583E599F0905FFAE00405
:102D3000F0E0547FF0C298309940C299905FFBE078
:102D4000FF905FF9E0FE6F602B30050F74222EF5C7
:102D500082E43422F583E0F599800D747D2EF582AE
:102D6000E43460F583E0F599905FF9E004F0E490D5
:102D70005FFCF022905FFC7401F0227836E22FF2C3
:102D800018E23EF27832E2706F7839E2FE08E2FF34
:102D90004E605F8F828E83A3A3E0FEA3E0FF7835B1
:102DA000E2FC08E2FDD3EF9DEE9C501108E2FC0826
:102DB000E2FD7F011228A878327401F2227839E20C
:102DC000FE08E2F5828E83A3A3C083C0827835E239
:102DD000FE08E2FFC3A3E09FFF0582D582021583B0
:102DE0001582E09ED082D083F0A3EFF0E418F208C1
:102DF000F222E47835F208F2228F43E5437003FEB5
:102E0000FF22903322E0C39543F0902121E0F54466
:102E1000854345E544C39490505074912544F58210
:102E2000E43420F583E0703B1545E5457038C3E593
:102E300044954304F5442491F582E43420AF82FEA6
:102E4000AB43AD43123DE6902121E0B54403254359
:102E5000F075F020E544A42422F582E5F03421AF9A
:102E600082FE22854345054480A9123853E4FEFFC3
:102E7000228E858F848C838D82EB22E0FFA3E0FE7F
:102E8000A3E0FDA3E0FCA375920122122E71601F46
:102E9000122E7BF0A3DB028016EDF0A3DB02800F85
:102EA000EEF0A3DB028008EFF0A3759200DBE17582
:102EB000920022122E71602B122E7BEBC3940440E1
:102EC00002ECF0A3EBC394034002EDF0A3EBC39438
:102ED000024002EEF0A3EFF0A3759200EBC394045E
:102EE000FB50D5759200224169B1004169B00041A3
:102EF00069BF004169190041691200416916014129
:102F00005DBD00415B6100414E3800414D92004182
:102F1000500B004150050041500A00415002004151
:102F20004E3A00414D9300414D9700414D90004174
:102F30004FE200414E3900414E3B00414D96004367
:102F40004D7B00000041501830424D570000425266
:102F5000CEFFFF4150C7004200CA000000C2AF7858
:102F60002BE27823F2782EE521F2E56FD39403402B
:102F70004F7521C77825E2FE08E2FFF5828E83A314
:102F8000A3A3E0782BF2E4782FF2D2AF782BE2FD06
:102F900033333354F8FD902C7F93F5A5747B2DF5D6
:102FA00082E4342CF583E493740193FA740293F56C
:102FB000828A8312086AE4F5A5C2AF12272580AA87
:102FC0007823E2782BF2782EE2F521D2AF228F829D
:102FD0008E83A3A3E024FE60201460331460462493
:102FE0000370577816E2FD08E28F828E83CDF0A33E
:102FF000EDF018EEF208EFF2227812E2FD08E28F0F
:10300000828E83CDF0A3EDF018EEF208EFF2227875
:1030100010E2FD08E28F828E83CDF0A3EDF018EE72
:10302000F208EFF2227814E2FD08E28F828E83CD5F
:10303000F0A3EDF018EEF208EFF2229059361239B3
:1030400061905935F0905935E0FEC39408500D1247
:1030500039466008905935E004F080E9905935E030
:103060001207D9307F00308301308702308B033064
:103070008F04309305309706309B07000030A1A2E3
:1030800080801AA2858016A2978012A2B1800EA21B
:10309000B2800AA2B38006A2B48002A2B7E433FFD2
:1030A000227F02228F678D688A698B6AE56A45698B
:1030B00060541226F29059F4EEF0FCA3EFF0FD906C
:1030C00059F4E0FEA3E0FF2404F582E43EF58374A6
:1030D00003F0EF2406FFE43EFE8F82F583E56BF0FC
:1030E000AA06A9077B01900001E56712043E900043
:1030F00002E56812043E900003E569856AF0120457
:10310000F57F071226AE2253B5F7C26053A4FEC264
:1031100036C21F90BFA7E0543FF090500AE0443001
:10312000FD905002E0FB7F0B123B61E490BFA3F0E7
:1031300090BFA204F0A37410F0E490B203F0788A78
:10314000E24401F21226E19057D6EEF0A3EFF090A0
:1031500057D6E0FCA3E0FD2404F582E43CF583743B
:1031600031F07F0E1226AE2242FFDC130243FFDF56
:103170008E0244FFDAB50245FFDCBB0246FFE14F99
:103180000247FFDFDC0250FFE9A50051FFF1990083
:1031900063FFF3600167FFE0BE0268FFD2200169B0
:1031A000FFD93C0271FFC2B10153FFA0DC0054FF04
:1031B000ED520173FFE7220274FFD7AB0275FFF2F5
:1031C000080076FFF21E00E4FFEF75F007A424A6C6
:1031D000F582E43463AD82FCEF75F007A4249FF51B
:1031E00082E43463F583ECF0A3EDF00FBF13DAE46F
:1031F000906424F0A3F078337463F208749FF2E4CF
:103200007839F208F27832F27835F208F21226E1D3
:103210007837EEF208EFF22404F582E43EF583E419
:10322000F022300A1B782FE56DF27825E2FE08E2E5
:10323000F5828E83E0FFA3E07829CFF208EFF22237
:1032400030091B781BE56EF2782CE2FE08E2F5826D
:103250008E83E0FFA3E07819CFF208EFF222300866
:103260001A7822E570F2781CE2FE08E2F5828E837D
:10327000E0FFA3E07820CFF208EFF222EF4E604C9F
:10328000C3EF9422FFEE9421FEEF7805CEC313CE58
:1032900013D8F9F545C39490503274912545F582C1
:1032A000E43420F583E0FB903322E02BF074912589
:1032B00045F582E43420AF82FEE4FD123DE6902124
:1032C00021E0FFE545C39F5003E545F0228F668D61
:1032D000678B681226F29059B2EEF0FCA3EFF0FD76
:1032E0009059B2E0FEA3E0FF2404F582E43EF583AA
:1032F0007404F0EF2406FFE43EFE8F82F583E56858
:10330000F0AA06A9077B01900001E56612043E9031
:103310000002E56712043E7F071226AE22E49059B0
:103320001AF090591AE0FF75F007A42436F582E4EC
:103330003464AD82FCEF75F007A4242FF582E434E9
:1033400064F583ECF0A3EDF090591AE004F0E0B4DA
:103350000FD0E4906498F0A3F090649F7464F0A39D
:10336000742FF0E490642DF0A3F022AC75AD76AE2E
:1033700077AF787810EC4D4E4F70047CA57DA5C3D7
:10338000EC13FCED13FDEE13FEEF13FF5010EC6495
:10339000CCFCED644CFDEE644EFEEF64CEFFD8DF56
:1033A0008C758D768E778F78EE547FFE228E758F9A
:1033B0007674A5F577F578229059CBEEF0A3EFF06F
:1033C000EB4A603C90A403E020E1F9C2AFAF059066
:1033D000A406ECF0A3EFF0AF0390A40AEAF0A3EF89
:1033E000F09059CBE0FFA3E090A412CFF0A3EFF050
:1033F00090A403E04402F0D2AF90A403E020E1F9EE
:1034000022F08F828E83E5822407F582E43583F5EE
:10341000832290044EE56275F003120798E022E5DE
:103420001E2425F582E4351DF58322F08F828E83DC
:10343000E5822275F003EF900361120798E022D233
:1034400087C287D287C28722F582E43583F58374E9
:1034500001F08F828E83E582222424F582E5833475
:1034600001F58322F582E43583F5832278BCE6FEFC
:1034700008E6222482F582EE3401F58322EF12075A
:1034800098EF2583AF82FE22789CE2FE08E222902C
:103490006636E0123B85E0703B906636E0FB75F0E7
:1034A00005A4243FF582E43466F583EEF0A3EFF043
:1034B000EB75F005A4243DF582E43466F583ECF069
:1034C000A3EDF0EB123B857401F0906636E004F05A
:1034D000E0540FF0229059B0EEF0FAA3EFF0FBA306
:1034E000ECF0FEA3EDF0FFA37401F0AD03AC02FB22
:1034F0007A001236C4EF701C9059B0E0FEA3E0FFD2
:10350000A3E0FAA3E0FB7D017C001236C7EF700454
:103510009059B4F09059B4E0FF228E2F8F308F82F3
:103520008E83E0FEA3E0FF4E700D853082852F83F1
:10353000ECF0A3EDF0801B8F828E83E0FAA3E0FB1A
:103540004A6006AE02AF0380EE8F828E83ECF0A35A
:10355000EDF08D828C83E4F0A3F0228F457F039001
:1035600055CCE07003D38001C34002E4FF9069BCF6
:10357000E0520790675AE0B50703EF701E90675A54
:10358000EFF01226E190587AEEF0A3EFF090587A1F
:10359000123DD87445F07F051226AE22D56D035337
:1035A0006FFB782FE270197825E2FE08E2FFF582C2
:1035B0008E83E0FDA3E07829CDF208EDF2122FCE44
:1035C000E4782FF27829E2FF08E27825CFF208EFBD
:1035D000F222D56E03536FFD781BE27019782CE24E
:1035E000FE08E2FFF5828E83E0FDA3E07819CDF2BC
:1035F00008EDF2122FCEE4781BF27819E2FF08E210
:10360000782CCFF208EFF222D57003536FFE7822A8
:10361000E27019781CE2FE08E2FFF5828E83E0FD7D
:10362000A3E07820CDF208EDF2122FCEE47822F25A
:103630007820E2FF08E2781CCFF208EFF2228F45F3
:103640008D461226E190587DEEF0A3EFF02404F5AC
:1036500082E43EF583E545F0EF2405F582E43EF58E
:1036600083E546F090587DE0FCA3E0FD7F02022652
:10367000AED310AF01C3C0D0EDF5E9ECF5EAEFF53C
:10368000EBEEF5ECEBF5EDEAF5EE7404140070FCEE
:10369000E5E9E5EAE5EBE5ECE5EDFFE5EEFED0D0AA
:1036A00092AF22D20E122DF9C20E22D20E12327C0D
:1036B000C20E22D20E12DB0FC20E22023D68023D64
:1036C00078023991023AC7023D88023D30023D43FB
:1036D000023D98E4FE123954F583E0B50719EE7502
:1036E000F03CA42499F582E43451F583E030E007FE
:1036F000123954AF82FE220EEEB401D9E4FEFF224D
:10370000EF541FD39400E49400400FEF7805CEC32C
:1037100013CE13D8F904F568800CEF7805CEC313E7
:10372000CE13D8F9F568AF681236A322D310AF01D3
:10373000C3C0D0EFF5E9EDF5EDEEF5EAECF5EE748A
:1037400002140070FC00E5E9FFE5EAFEE5EBFDE5AB
:10375000ECFCD0D092AF227814E2FE08E2FF8E2F6C
:10376000F530452F60168F828E83E0FEA3E0FF18B0
:10377000EEF2FE08EFF24E7003123829AE2FAF3092
:10378000227810E2FE08E2FF8E2FF530452F6016FA
:103790008F828E83E0FEA3E0FF18EEF2FE08EFF2C8
:1037A0004E7003123829AE2FAF30227812E2FE0895
:1037B000E2FF8E2FF530452F60168F828E83E0FE5C
:1037C000A3E0FF18EEF2FE08EFF24E700312382964
:1037D000AE2FAF30227816E2FE08E2FF8E2FF530D2
:1037E000452F60168F828E83E0FEA3E0FF18EEF275
:1037F000FE08EFF24E7003123829AE2FAF30229040
:1038000069537402F0A3E5A5F0A37480F0AF81A81A
:1038100007E6A3F0A37414F0E58114F8E6A3F07CA6
:10382000697D4F7F041226AE229069537402F0A383
:10383000E5A5F0A37480F0AF81A807E6A3F0A37418
:1038400015F0E58114F8E6A3F07C697D4F7F041242
:1038500026AE229069537402F0A3E5A5F0A374800C
:10386000F0AF81A807E6A3F0A37417F0E58114F880
:10387000E6A3F07C697D4F7F041226AE228E858FF1
:10388000848C838D82EB601EE0FFA3E0FEA3E0FD4D
:10389000A3E0A3759201F0A3EDF0A3EEF0A3EFF087
:1038A000A3759200DBE222D310AF01C3C0D0EFF5C5
:1038B000E9EEF5EAEDF5EDECF5EE7402140070FCBE
:1038C000E5E9FFE5EAFEE5EDE5EED0D092AF22D3E3
:1038D00010AF01C3C0D0EFF5E9EEF5EAEDF5EDEC80
:1038E000F5EE7402140070FCE5E9E5EAE5EDFFE5AC
:1038F000EEFED0D092AF2225000102030405060798
:1039000008090A260B0C0D0E0F10111213141516B0
:103910001718191A1B1C1D1E1F2021222324279053
:10392000BE27E0905804F090BE2412071A90580069
:1039300012074F90BE27E0FF905804E0B507E090D3
:10394000580012071A22A31207A48E827583001250
:1039500003CC6F22EE75F03CA42496F582E434513A
:10396000227B017A6E79261207C4E4228F828E832D
:10397000E0FCA3E0FDFBAA044A60118D828C83E089
:10398000FDA3E08F828E83CDF0A3EDF0AE02AF03F6
:10399000229069A9123B7E7888ECF208EDF27884D7
:1039A000EAF208EBF27886EEF208EFF212EFEB9013
:1039B00069A8123B93228E858F848C838D82EA7056
:1039C00003EB6015EB6003EA04FAE493A37592013C
:1039D000F0A3759200DBF3DAF1228E858F848C835D
:1039E0008D82EA7003EB6014EB6003EA04FAE0A353
:1039F000759201F0A3759200DBF4DAF22290B00127
:103A0000EFF0A3ECF0A3EDF090B005E04410F0E48B
:103A100090589CF00090589CE004F0E0B40AF52225
:103A2000E490685FF0906860F0906861F0784DF223
:103A300008F290686CF090B403F090BC22E0547FE0
:103A4000F02285A56275A5019043A0E493906EA035
:103A5000F07E6E7FA17C437DA17B1F7A001239B678
:103A60008562A5228E858F848C838D82EA7003EB1C
:103A70006013EB6003EA04FAE0A3759201F075921B
:103A800000DBF5DAF322906B00E090B803F0906B66
:103A900001E090B802F0906B02E090B801F0906BFA
:103AA00003E090B800F0228E858F848C838D82AFE6
:103AB000031BEF6010E0A3FF759201E0A375920075
:103AC0006F60ECD322C3228E7C8F7DAF05AE049055
:103AD00069A7123B7EAD03AC02AB7DAA7C12A28526
:103AE0009069A6123B93228E858F848C838D82EB06
:103AF00060121BE493A3FF759201E0A37592006F1F
:103B000060EDD322C32285A53DE4F5A5EF701275C3
:103B1000A5017E6B7F007C407D007BF07A0412392A
:103B2000B6853DA522903DA4EFF01226E190587A8B
:103B3000EEF0A3EFF090587A123DD87461F07F0553
:103B40000226AEE4FE90F02B123DA8B5070B90F0D4
:103B500030123DA86003AF06220EEEB401E77FFFEE
:103B60002290A4B3EDF090A4B2EBF090A4B1EFF0EA
:103B700090A4B07480F090A4B0E020E7F922E5A50D
:103B8000F075A5012275F005A4243CF582E43466A5
:103B9000F58322EFF0A3E0F5A5228E858F848C8338
:103BA0008D82EB600DE493A3759201F0A3759200F2
:103BB000DBF32285A53DE4F5A57E147F2A7C407DBC
:103BC000D07B2D7A011239B6853DA5228E838F8256
:103BD000EA7003EB600DEB6003EA04FAEDF0A3DB9F
:103BE000FBDAF9228E858F848C838D82EB600CE06A
:103BF000A3759201F0A3759200DBF42275985075BD
:103C00008920E587547F4480F587758DE6D28ED272
:103C100099C2982200000002000400100022001F38
:103C2000002A003F0054007F00FF0200E4902121A1
:103C3000F0FF7F90902091E4F0A3DFFC903322749A
:103C400090F022905FFBE0247DF582E43460F58300
:103C5000EFF0905FFBE004F0229068A3E5A5F09000
:103C6000BF17E0F52A90BF16E0F52B12136E220263
:103C700065A5950500010203040503665A0A0500BF
:103C800066778899AA75A50412FDBB12D07112B48B
:103C9000F312F18BE4F5A5229059ADE5A5F075A5D9
:103CA0000612741B9059ADE0F5A5229059AAE5A51E
:103CB000F075A506126F1E9059AAE0F5A52290593D
:103CC00033E5A5F075A50212B658905933E0F5A575
:103CD00022AB07AA06AE04AF05AC02AD037B017AA6
:103CE000000236C19059D2E5A5F075A50512E63659
:103CF0009059D2E0F5A5229059A7E5A5F075A50544
:103D000012DDD19059A7E0F5A5229059B0E5A5F0B4
:103D100075A50412F5519059B0E0F5A5229059B05F
:103D2000E5A5F075A50412F7A79059B0E0F5A52216
:103D30009059F2E5A5F075A501129D809059F2E029
:103D4000F5A5229059F2E5A5F075A50112AE5490A3
:103D500059F2E0F5A52290B000EFF0A3EDF0A3EB4F
:103D6000F090B0067410F0229057EA123B7E12DFFA
:103D7000409057EAE0F5A5229057EA123B7E12C325
:103D8000629057EAE0F5A5229057EB123B7E12B302
:103D90007C9057EA123B93229069B8123B7E127FC7
:103DA000689069B8E0F5A52275F065EE120798EE07
:103DB00025E02583F583E022E4FE75A504129A4EE2
:103DC000AE0775A505AF0622034A05660782099E60
:103DD0000BBA0DD60FF2120EE0FCA3E0FD2404F5A1
:103DE00082E43CF583228E838F82EB6005EDF0A3A5
:103DF000DBFB2285A54375A50212DE0D8543A522B6
:103E000085A56075A50112D4578560A52285A56298
:103E100075A50512F9088562A52290B002EFF09011
:103E2000B0067404F022E4F56FF56DF56EF57022BE
:103E300075A50212FE36E4F5A52275A50112F466F9
:103E4000E4F5A52275A50212C6E1E4F5A52275A543
:103E50000112BE6AE4F5A522E4F5A512CBD0E4F583
:103E6000A52275A50112A413E4F5A52275A50312D8
:103E7000E3A3E4F5A52275A50312E187E4F5A522E5
:103E800075A50312BF6F75A5052275A50312BE7631
:103E900075A5052275A50312DD1575A5052275A565
:103EA0000612751FE4F5A522E4F5A512F9D2E4F592
:103EB000A52275A50412FB90E4F5A52275A50512AF
:103EC000DA53E4F5A52275A50312F60775A50522B8
:103ED00075A50312F2C975A5052275A50412E6B7EA
:103EE00075A5052275A50412FF0A75A5052275A5FD
:103EF0000412FF3A75A5052275A50412446275A542
:103F0000052275A50412C36B75A5052275A50412BB
:103F1000B78975A5052275A50512F90875A50422AE
:103F200075A50512DDD175A5042275A50512E63625
:103F300075A50422E4F5A512EE9D75A50522740E63
:103F4000C0E07400C0E03200014343C7C7C7C706E2
:103F500035220639003522E4FF000FBF11FB228015
:103F600032807280B280F212B8E475A50422126C1D
:103F70008975A50422001208001000FFFFFFFFFF53
:103F8000FFFFFFFFFFFFFFFFFFFFFFFFFFFFFFFF41
:103F9000FFFFFFFFFFFFFFFFFFFFFFFFFFFFFFFF31
:103FA000FFFFFFFFFFFFFFFFFFFFFFFFFFFFFFFF21
:103FB000FFFFFFFFFFFFFFFFFFFFFFFFFFFFFFFF11
:103FC000C2AF90BD03E4F00000438E08D285C285E5
:103FD00000000002000EFFFFFFFFFFFFFFFFFFFFDB
:103FE000C2AF90BD03E4F00000538EF7D285C285C6
:103FF00000000002000EFFFFFFFFFFFFFFFFFFFFBB
:104000000011001B007900B700E00153FFFF000022
:10401000000000000000000000000000000000039D
:104020000303020202020101010101010101040472
:104030000404040404040404040404040404040341
:104040000303020202020101010101010101001B3F
:10405000000A0014001EFFFF001D007900B7FFFFDB
:10406000FFFF00E001530036FFFF003C005A005301
:10407000001D016F02280168021C02A703FD000257
:10408000FEFE01FE0102FE0B144142010203040583
:10409000060708090A0C0D0E0F1011131516171A32
:1040A0001E1F2021232425262728292A2B2C2D2EAC
:1040B0002F3031323334353637383D3E3F44454773
:1040C0004E4F03020504070609080B0A0D0C0F0EDC
:1040D00004360012111111114000289A07010A300C
:1040E000365540000F08B0F03F000FFF1716F76677
:1040F000F5445644E124C07258C03E8000043FF4A9
:10410000000210035F107F00550040006BA00040CC
:104110002444F7660C900B3368860DCF0C00000921
:10412000F54456440C03F06A42109AA1244400005E
:10413000000000000000B0F0B0F0B0F0B0F0B0F05F
:1041400021018F80000000A10B01D612C544554407
:1041500000220026009C880000004ECDCC30444058
:104160003000381021242842525E9D4B86009B056A
:1041700031CB0F63103011131B112A246411200F4F
:104180001E468720A0506208010D108001726D024A
:1041900058000280460360023001000C01E2078CE7
:1041A0000C1300000B270203020205000404B5995A
:1041B00001699600000000000000000000000000FF
:1041C00000000000000000000000000000000000EF
:1041D00000000000000000000000000000000000DF
:1041E00000000000000000000000000000000000CF
:1041F0000000000000000000000000AA5501029A23
:1042000002F007009A020002E007009A020002078B
:10421000030011137F3F0091E3720796E4750E9F30
:10422000ED7C0998EA7B1C8DFF6E1B8AF86912836E
:10423000F1601584F66738A9DB4A3FAEDC4D36A73E
:10424000D54431A0D24324B5C75623B2C0512ABBAE
:10425000C9582DBCCE5F70E1930277E694057EEFDE
:104260009D0C79E89A0B6CFD8F1E6BFA881962F32E
:10427000811065F4861748D9AB3A4FDEAC3D46D77E
:10428000A53441D0A23354C5B72653C2B0215ACB6E
:10429000B9285DCCBE2FE0710392E7760495EE7FDE
:1042A0000D9CE9780A9BFC6D1F8EFB6A1889F263EE
:1042B0001180F5641687D8493BAADF4E3CADD6473E
:1042C00035A4D14032A3C45527B6C35220B1CA5B2E
:1042D00029B8CD5C2EBF900173E2970674E59E0F5E
:1042E0007DEC99087AEB8C1D6FFE8B1A68F98213AE
:1042F00061F0851466F7A8394BDAAF3E4CDDA6377E
:1043000045D4A13042D3B42557C6B32250C1BA2BED
:1043100059C8BD2C5ECFE4F54F9069BAE0F54EE484
:10432000F0C222788CE24401F2A220B34003024D95
:10433000699052D6E01207D9464E01481D0249F550
:10434000034B890443720544E406435A0743660855
:10435000436C0943600C00004D2E12F761024D348E
:1043600012DEB6024D34129FF3024D341263BD02C9
:104370004D34D222906746E0540D24FB606724F848
:104380007003024498240C60030244DF78A412995D
:104390005C78A5E26F700318E26E704478ADE62495
:1043A000FE6003024D34124DAB12F0E51299799084
:1043B000B81BE09052D81298C71298ECE4FDFF1297
:1043C000E2A09053FB129A061299117405F29067BD
:1043D00046E04404F07F1A12F6D090673602495442
:1043E000C222024D3478ADE624FE601B2402600335
:1043F000024D3412E4731298B01299E044011298FD
:10440000FB12999B024D341299B360FB90BF43E0BD
:1044100020E009906736E0D39402404212F98C12F2
:104420004D9D9055C612076700000000906747E059
:10443000FF12F24B12F7B99055CC7401F0C2111271
:104440009984906746E04408F07F1012F6D0D2229B
:10445000E4906736F0905449E04490F0802F12E4E5
:104460007312997912F0E590B81BE09055C5129837
:10447000C71299E0440390BA03F0906747E0FFE465
:10448000FD12E2A090BA237401F0129A45784574A7
:1044900005F27847F2024D34906736E0D39420401D
:1044A0000E7F1912F6D012F08A12993A024D341288
:1044B000F49512989E906747E09052DA12991FE0A7
:1044C0004460F0C22275F06FEF9053FB129923E025
:1044D000906602F090674712991BE4F0024643C2CF
:1044E00022024D34D22290673EE0546D24FB7003CB
:1044F00002457724F870030245E524E07003024585
:10450000ED24C0700302461E246C60030246497805
:10451000A812995C78A8E2FC08E2FDC3EF9DFFEECB
:104520009CFED3EF9418EE9400504778ABE26D7088
:104530000318E26C6003024D3478ADE624FE702A65
:10454000124D6A9056A2E0FFE4FD12E2A09056A23E
:1045500012991B129A061298FE90673EE04404F0EE
:104560007F1D12F6D0E4906736F078457408F202A9
:104570004D34C222024D3478ADE6603224FE600331
:10458000024D34906736E0D39410400B7F1B12F637
:10459000D0751C01024D34124D6AE4FDFF12E2A0F9
:1045A0001298FF12999B78457408F20246431299BB
:1045B000B360FBE0640460F6E0640560F190BF4323
:1045C000E0F55020E203024D34124DAB12F93B12DC
:1045D00099E0440112990E7408F21299E7E4906789
:1045E00036F0024D34E4FF12F24B024D3412C5AFE7
:1045F00090673E746DF09055CC7402F09055D0E009
:10460000440112989DC22212993A9053FBF09055A2
:10461000C5E09052D8F0129A45D219024D21906708
:1046200036E0D39420401A7F1C12F6D012F7B9124C
:10463000998B905449E044F0F0E49052D6F0024D4A
:1046400034C222129A45024D34C222024D34D22283
:10465000906748E054316401600302473F78ADE65B
:1046600014604114606214605F24036003024D34DF
:10467000E54E64016003024D341298B01298EC12BA
:10468000E50612999578457401F29069BA04F0E450
:1046900090B81FF090B853F0C22F90BF23E054EFB2
:1046A000F0024D341298A4E54E64026003024D34CA
:1046B0001298B0129A4C12E5061298FF784514F23F
:1046C0009069BA04F0024D341299A3E54E64047067
:1046D00003024D341299B360FB90BF43E030E034E5
:1046E000E54E6402702E78ADE6B4020512F98C80B6
:1046F0000312F9809069BA7404F0D22F90BF23E0BE
:104700004410F078457401F290BE27E024027857F7
:10471000F2024D3412F93B78ADE6B4020C1298EC7B
:1047200012E506129912024936124D9012E50690D2
:10473000BA2B7401F07847F29069BAF0024D3490C8
:104740006748E0F9543164117052129A56600302BE
:104750004D3490BC1BE04440F0E4783EF21299BA2C
:10476000FF240EFDE43EFCAB0590B60AF0A3EBF08F
:10477000EF24FEFFE43E90B60E1298E8E490B805F0
:10478000F090BA237402F0E94420906748F0AF0536
:10479000AE047BF0E4FD123DE6024D34906748E044
:1047A000547164317052F550783EE204F2E26402D2
:1047B0006003024D341299B360FB90BF43E030E0D8
:1047C0001B90B85FE0640460F8E0640560F30000EB
:1047D00000000090BF43E030E1058000755001E526
:1047E00050600FE4FF12EE35906748E054CFF002BE
:1047F0004D341299E7024D34906748E0FF547164DC
:10480000716003024D34EF20E3047F018002E4FF76
:1048100012EE35906748E05487F0024D34D2229072
:10482000674BE0540D24FB700302495A24F87003CF
:104830000249F0240C6003024D341299A378ADE6CE
:1048400014602714604414604124036003024D3453
:10485000E54E64016003024D341298ECC21512CC8F
:10486000CA129995784574038017E54E6402600377
:10487000024D34129A4CC21512CCCA1298FF7845D8
:1048800004F29069BA14F0024D341299B360FB90AF
:10489000BF43E030E04AE54E6402704478ADE6B4D0
:1048A000020512F87A800312F98C90BE2412071ABE
:1048B00090673712074F129A129067457401F012F1
:1048C000DD4A1299067404F2129A601298CF12F21D
:1048D000A012997990674BE04404F07F080249EAFE
:1048E000906743E030E11A78ADE664036003024D5F
:1048F00034129A671298A4E49052D6F07F070249C6
:10490000EA903D51E030E01A78ADE66403600302BE
:104910004D34129A671298A4E49052D6F07F0702A1
:1049200049EA12F93B78ADE6B402151298EC12CCC4
:10493000CA1299127403F29069BAE54EF0024D342E
:10494000124D9012CCCA90BA2B7401F078477403C0
:10495000F29069BA7401F0024D3478ADE624FE603D
:104960002424026003024D3490673AE04402F012BE
:10497000DD4A1299E0440190BA0BF01298B01298F7
:10498000FF78458027906745E004F01299B360FBFB
:1049900090BF42E030E01B129A1212DD4A12997960
:1049A00012F2A0129A601298CF1299067404F202C1
:1049B0004D3490BF43E020E003024D3412989E1224
:1049C000F98C12F4959055CC7401F0C211124D9DE2
:1049D000129984905449E044F0F0E490556AF0C292
:1049E0002290674BE04408F07F1012F6D0024D345D
:1049F000C222024D34D2221298A478457402F29059
:104A00006741E0FF541924F7604324F060532418F1
:104A10007075EF30E612129A1A906742E020E603B2
:104A2000129A3A754F01806178ADE66402705A754A
:104A30004F0112EA911298F6906741E04440F090DD
:104A4000675B129A26FD7F0F122758803C906756AD
:104A5000E06009906742E04401F0802D906741805A
:104A600020906742E020E4217F0C12F6D0C2AF9084
:104A7000BE12E04403F0D2AF788CE254FEF29067AD
:104A800042E04410F08002C222906742E0FF5407E7
:104A9000FEBE010AEF4402F01299A3024D34EE6407
:104AA000036003024B5E1299A3129A566003024DF3
:104AB00034129A60F0E0547FF090B81AE054FEF09F
:104AC000E054FDF0906785E06025906756E0FDD3E7
:104AD000941150081299FF4418F08036EDD3947960
:104AE0001299FF50054450F080284470F0802390C4
:104AF0006756E0FDD3941B50081299FF4420F080C4
:104B000011EDD394B71299FF50054458F080034437
:104B100078F090B817E054FC4402F0E054FBF090B9
:104B20006756E075F008A4FF90B817E05407FDED54
:104B30004FFFE5F01298E078477409F290207FE08B
:104B4000FFA3E090B61ACF1298E8E490B805F09071
:104B5000BA2304F0906742E04404F0024D349067B9
:104B600042E0FD540764076003024D341299A3909C
:104B7000B85BE06003024D34ED54F8906742F0906A
:104B80006741E04410F0024D34D222906743E0FFC9
:104B9000543D24FB605D24E87003024CD3241C6068
:104BA00003024D2AEF30E612906744E020E603123C
:104BB0009A3A129A1A754F01803178ADE664027004
:104BC0002A754F0112EFCD1298A41298F690674300
:104BD000E04440F0906B06E070057B80FA80069020
:104BE000675F129A26FD7F0F12275878457406F2E8
:104BF000024D34784AE2FDC378ADE69D5403F54D8D
:104C00006401704E129A1290BE27E0C39D13135494
:104C10003F04906745F0E0FF64057003024CCBEF62
:104C2000D3940540117F1312F6D09067437480F03F
:104C30001298A4024CCB1298B090B85BE0640C6060
:104C4000F8E0640160F312E99890BE271298F90227
:104C50004CCB906745E06073E58E547070057551DC
:104C6000288003E4F551E4F550E550C39551500513
:104C700000055080F4E54D64036004E54D704C90F0
:104C8000BF43E030E04590B85FE0640560F80000A5
:104C900090BF43E030E23190B82BE054786410705C
:104CA0002790BE27E07858F290673AE04402F0126D
:104CB000E99812F93B1298EC90BA237401F012991A
:104CC000E778457407F2800312F98C78457407F28F
:104CD000024D3412C5AF90BE27E0540378ADF69074
:104CE0006743E04420F09055D0E04401F09055CC6B
:104CF0007402F012993A9055C5E09052D812989DDE
:104D00009053FBE4F012E4731299E0440390BA0B61
:104D1000F0783FE2FF08E290B60ACFF0A3EFF0D2BE
:104D2000229052DAE04490F0800AC2228006788C09
:104D3000E254FEF2302232E490B8BBF0E54F600B53
:104D4000906B4A129A714440F08009906B49129A14
:104D50007154BFF090BA23E020E00790BA2BE03006
:104D6000E00790B87BE054FCF02212E47390BE2779
:104D7000E054FC440390BA0BF090B60A741CF0A304
:104D80007470F090B60E741CF0A37482F0C21522F9
:104D900012F38290BE27E00490BA0BF0227E557F7A
:104DA000BB7C6B7D007B0A123BE42212E473906BA8
:104DB00046E0FF12BC9C228F51E478A8F278AAF258
:104DC000784C7406F2E49068D2F078ABF20804F202
:104DD00078A9E51CF2E2FB75F06FA424D7F582E513
:104DE000F03452F583EB2583AF82F5528F53F58370
:104DF000E5822449F582E5833401F583E0541F18E8
:104E0000F2700302551B90BE17E04402F000000050
:104E10000090BE00E0FCA3E0FDA3E0FEA3E0FF786D
:104E2000011206A078A6EEF208EFF278AAE204F2E8
:104E300078A8E2146023147003024F8124FE7003EB
:104E40000251BF24F470030253C1240860030255C9
:104E50001B78ABE204F202551BE553245AF582E5B8
:104E6000523401F583E0FEA3E0FF78A6E2FC08E2FD
:104E7000FDC3EF9DFFEE9CCF24FFCF34FFFEE55333
:104E80002454F582E5523401F583EEF0A3EFF0E50A
:104E900053246BF582E5523401F583E0FFE553249A
:104EA0005AF582E5523401F583E0FCA3E0C39FFF8D
:104EB000EC9400CF24FFCF34FFFEE553245AF58253
:104EC000E5523401F583EEF0A3EFF0E5532449F504
:104ED00082E5523401F5837402F0AD03782BE2FBD6
:104EE0007F05122769E553246BF582E5523401F5FD
:104EF00083E0FF7846E2F9FDEF2DFFE433FEE55352
:104F00002454F582E5523401F583E0FCA3E0D39FFD
:104F1000EC9E500302551BE553245AF582E55234AA
:104F200001F583E0FEA3E0FF78A6E2FC08E2FDC302
:104F3000EF9DFFEE9CFEE9FDC3EF9DFFEE9400CFD9
:104F400024FECF34FFFE78A4F2FA08EFF2FB78A932
:104F5000E2FD7F05122758E5532449F582E55234D6
:104F600001F5837408F0E478ACF218E204F2E5533A
:104F7000244AF582E5523401F583E04401F00255FC
:104F80001BE5532454F582E5523401F58374FFF593
:104F9000F012047278A6E2FE08E2FFF554E553240D
:104FA0005AF582E5523401F583E0FCA3E0FDC39598
:104FB00054F554784CE2FBE554C39B5009E55494F6
:104FC000004003E554F2784CE2FB785CE2FAC39BC4
:104FD0005006784FEAF28004784FEBF2EF6D7002E2
:104FE000EE6C6003025152E553246BF582E55234B6
:104FF00001F583E0FF7E00E5532450F582E552344D
:1050000001F583E0FCA3E02FFFEE3CCF24FFCF347B
:10501000FFFEE5532458F582E5523401F583EEF0A6
:10502000A3EFF09055CCE064027072E5532468F56C
:1050300082E5523401F583E0605DE553246AF58230
:10504000E5523401F583E06011E5532468F582E50B
:10505000523401F5837402F0801CE5532469F58213
:10506000E5523401F583E0FFE5532468F582E5520B
:105070003401F583EFF0E5532468F582E5523401FD
:10508000F583E0FF12F632E553244BF582E5523406
:1050900001F583E04408F0E47862F2802E78A9E21A
:1050A000FF75F06FA424DAF582E5F03452F583EF52
:1050B0002583F583E04460F09068D2EFF0E5532457
:1050C00046F582E5523401F583E4F0E553244BF5CF
:1050D00082E5523401F583E04480F08553828552A5
:1050E00083A3A37404F078A9E2FF75F06FA424DA17
:1050F000F582E5F03452F583EF2583F583E04480B3
:10510000F0E5532449F582E5523401F5837404F047
:10511000D219E553246BF582E5523401F583E0FFA3
:10512000E5532454F582E5523401F583E4F0A3EF0E
:10513000F0E553244BF582E5523401F583E0442039
:10514000F0E553245DF582E5523401F583E4F00285
:10515000551BE5532454F582E5523401F583E0FEF6
:10516000A3E04E600302551BE5532456F582E55239
:105170003401F583E0FEA3E0FFE553245AF582E510
:10518000523401F583EE8FF0120472E5532455F585
:1051900082E5523401F5837480F0E553244BF582A7
:1051A000E5523401F583E04480F078A9E2FF1290E3
:1051B000EFEF700302551B78ABE204F202551BE5DA
:1051C00053245AF582E5523401F583E0FEA3E0FF53
:1051D00078A7E2B5071818E2B50613E553244BF596
:1051E00082E5523401F583E030E50302551BE553B7
:1051F000244BF582E5523401F583E030E533E55385
:105200002456F582E5523401F583E0FEA3E0FFE584
:1052100053245AF582E5523401F583EE8FF01204DF
:1052200072E553244BF582E5523401F583E054DFF7
:10523000F0E5532454F582E5523401F58374FFF50B
:10524000F0120472E5532458F582E5523401F583D7
:10525000E0FEA3E04E6013E5532458F582E5523496
:1052600001F58374FFF5F0120472AF53AE5212F5DC
:1052700089E5532458F582E5523401F583E0FEA315
:10528000E04E600302530F855382855283A3A374BB
:1052900002F078A9E2FF75F06FA424DAF582E5F058
:1052A0003452F583EF2583F583E0547FF0E55324F2
:1052B00052F582E5523401F583E0FCA3E04C6042F4
:1052C000E553245DF582E5523401F583E07033E562
:1052D000532449F582E5523401F5837410F0E55307
:1052E0002452F582E5523401F583E0FCA3E0FDE5AC
:1052F000532458F582E5523401F583ECF0A3EDF028
:1053000080451290EFEF603F78ABE204F28038788E
:10531000A9E2D394004030E553244BF582E55234A2
:1053200001F583E030E720E5532454F582E552345B
:1053300001F583E0FEA3E04E600D85538285528324
:10534000A3A3A3E04420F0E5532454F582E55234AE
:1053500001F583E0FEA3E04E7022E5532456F5826A
:10536000E5523401F583E0FEA3E0FFE5532454F554
:1053700082E5523401F583EEF0A3EFF0E553245AB1
:10538000F582E5523401F583E0FEA3E0FF78A7E261
:105390006F700318E26E600302551BE5532456F547
:1053A00082E5523401F583E0FEA3E0FFE553245A81
:1053B000F582E5523401F583EE8FF0120472025546
:1053C0001BE5532454F582E5523401F58374FFF54F
:1053D000F0120472855382855283A3A37402F0787D
:1053E000A9E2FF75F06FA424DAF582E5F03452F5F6
:1053F00083EF2583F583E0547FF0E5532458F5824D
:10540000E5523401F583E0FEA3E04E6013E553243A
:1054100058F582E5523401F58374FFF5F0120472F9
:10542000AF53AE5212F589E5532458F582E5523454
:1054300001F583E0FEA3E04E700F78A9E2FF129021
:10544000EFEF600578ABE204F2E553245AF582E50C
:10545000523401F583E0FEA3E0FF78A7E26F70030A
:1054600018E26E600302551BE553246BF582E5528A
:105470003401F583E0FF7E00E5532450F582E552C8
:105480003401F583E0FCA3E02FFFEE3CCF24FFCFF7
:1054900034FFFEE5532458F582E5523401F583EEDE
:1054A000F0A3EFF0855382855283A3A37404F078B0
:1054B000A9E2FF75F06FA424DAF582E5F03452F525
:1054C00083EF2583F583E04480F0E5532449F5829A
:1054D000E5523401F5837404F0E553246BF582E55D
:1054E000523401F583E0FFE5532454F582E552344C
:1054F00001F583E4F0A3EFF0E5532456F582E5527D
:105500003401F583E0FEA3E0FFE553245AF582E57C
:10551000523401F583EE8FF012047278ABE260062C
:10552000788CE254F7F22278A87401F290B82BE05C
:10553000547878A6F2C22FC22BC229E408F2E054B4
:10554000077859F278A6E21207D955DA08564010C2
:1055500055A51855A52055B12855BB3055C438560A
:105560002C4056374855915055915855CD6055CDE2
:1055700068557B70557B780000564278AE740426DF
:10558000F6D22978A87405F2187401F2D22F0256C7
:105590004278AE0606D22978A87403F2187401F294
:1055A000D22F025642D22978A77401F2D22F025686
:1055B0004278A77401F2D22F02564278A77401F202
:1055C000D22F807E78A77401F2D22F807578AE0634
:1055D0000678A77401F2D22F8068D22B9052D6E0C1
:1055E000B406169055CCE0B4020FE49052D6F07F8A
:1055F0001612F6D0E490673EF09052D6E0B404154F
:10560000906743E030E30EE49052D6F0906743F0A9
:105610007F1612F6D0906860E0B401269052F6E052
:10562000FFA3E0784DCFF208EFF2801678A774015F
:10563000F2D229D22F800B78A77401F2D22F8002E8
:10564000D22F90B82BE030E70F851E82851D83A3F3
:10565000A3A3E04410F0801B851E82851D83A3A3B5
:10566000A3E054EFF0E51E2446F582E51D3401F574
:1056700083E4F0851E82851D83A3A3A3E0FF20E3BE
:105680000302589590B82AE020E003025895851E41
:1056900082851D83A3A3A3EF54F7F0E51E2434F500
:1056A00082E4351DF583E020E2030257BD785EE217
:1056B000FE08E2F5828E83E0640360030257BD18A2
:1056C000E2FE08E2F5828E837404F01226E178A4EB
:1056D000EEF2FC08EFF2FD18E2FE08E2FF2404F50A
:1056E00082E43EF5837405F0785EE2FA08E224076E
:1056F000F582E43AF583E0FBEF2405F582E43EF51C
:1057000083EBF07F031226AE75F06FE51CA424DA5C
:10571000F582E5F03452F583251CF583E054FDF065
:10572000E51E2448F582E51D3401F583E0FF30E0F5
:1057300057E51E2448F582E51D3401F583EF54FE3C
:10574000F0E51E2460F582E51D3401F583E030E1CB
:1057500010E51E2448F582E51D3401F583E044027E
:10576000F0E51E2460F582E51D3401F583E030E2AA
:1057700010E51E2448F582E51D3401F583E044045C
:10578000F0AD1C7F1C12F69C785EE2FE08E2240855
:10579000F582E43EF583E0FEA3E0FF18EEF2FE089A
:1057A000EFF24E601875F06FE51CA424DAF582E57F
:1057B000F03452F583251CF583E04401F0E51E2406
:1057C00034F582E4351DF583E064026003025895E8
:1057D0007849E2700218E270030258951226E178C7
:1057E000A4EEF208EFF22404F582E43EF583740699
:1057F000F0EF2405F582E43EF583E51CF018E2FCA9
:1058000008E2FD7F031226AE7848E2FE08E2F58248
:105810008E83E030E25E1226E178A4EEF208EFF229
:105820002404F582E43EF5837403F0EF2405F58249
:10583000E43EF583E51CF07848E2FE08E2FF24052B
:10584000F582E43EF583E0FB78A4E2FC08E2FD2467
:1058500006F582E43CF583EBF0EF2406F582E43EA6
:10586000F583E0FFED2407F582E43CF583EFF07F5C
:10587000061226AEC2207848E2FE08E2FFF5828ECC
:1058800083E054F0FDBD70069068D47406F08F82FA
:105890008E837408F0906860E0541E6003025926FD
:1058A00020290302592690B82AE05402F54EE51E3D
:1058B0002446F582E51D3401F5837404F0E51E24C9
:1058C0001DF582E4351DF583E0654E7031E51E243B
:1058D0001EF582E4351DF583E0FF90B82FE05403F8
:1058E000B5071B90685FE0703DC22F12F98CE51E72
:1058F000241AF582E4351DF5837401F0802878A818
:10590000E2D3940140209068D2E0601AC229740169
:10591000F2C22F12F98CE51E241AF582E4351DF52A
:1059200083E4F078AEF6E51E2449F582E51D3401E6
:10593000F583E0FF541E7003025AA4EF5414602A4A
:105940009055CCE0B4010B851E82851D83A3A37402
:1059500004F075F06FE51CA424DAF582E5F034520A
:10596000F583251CF583E04480F0202903025A18B2
:10597000E51E2452F582E51D3401F583E0FEA3E027
:10598000FF78A8E2FD7C00EF2DF54FEC3EF54EE5EB
:105990001E2458F582E51D3401F583E0FEA3E0C323
:1059A000954FEE954E50579055CCE0B4011DE54F04
:1059B00024FFFFE54E34FFFEE51E2458F582E51D69
:1059C0003401F583EEF0A3EFF08013E51E2458F5C3
:1059D00082E51D3401F583E54EF0A3E54FF0E51EA9
:1059E0002449F582E51D3401F583E05428700FE564
:1059F0001E2449F582E51D3401F5837404F090B846
:105A00002FE05403FFBF0310E51E244BF582E51D74
:105A10003401F583E04440F0E51E244BF582E51D9A
:105A20003401F583E030E62030291D851E82851D76
:105A300083A3A3A3E04420F0E51E244BF582E51DDB
:105A40003401F583E054BFF09055CCE0640170540C
:105A5000E51E244BF582E51D3401F583E0FF30E7B8
:105A600023783CE2B4101DE51E244BF582E51D347D
:105A700001F583EF547FF0851E82851D83A3A3A3C8
:105A8000E054DFF020291D851E82851D83A3A3A37A
:105A9000E0542F700FE51E245DF582E51D3401F5FD
:105AA000837401F09055CCE0B4011178A8E2D3944E
:105AB000014003025BFB12A812025BFB12A1A0E5EE
:105AC0001E244BF582E51D3401F583E0FF30E7230A
:105AD000783CE2B4101DE51E244BF582E51D34012F
